:020000040000fa
:080000000001040000000000f3
:020000040000fa
:100200004f82200080ff20000001880000000000d5
:10021000050007000c00070080010200000000003c
:100220000040da000000fe004440a9000000200069
:100230000000e0000300320000002000a001880060
:100240004440a80000000600a08820000100200013
:100250001600370062004000e080480091018800ed
:100260009001ba0062004000e080480091018800df
:100270009002ba0062004000e08048000002eb00fb
:100280006028e10005003a008301e900070033001f
:10029000038009000059eb00040037006128e100e9
:1002a000010032000082eb00050007009101880088
:1002b0001001ba000200e000e6ff3a00000005006d
:1002c000910188008002780062004000e0804800d0
:1002d0003559ba008301e900080032002559ba00f7
:1002e0008301e900050032000400e000f4ff320061
:1002f00015d9ba008301e900f1ff3a0000000600b9
:100300000000fa00881f7800040107000000370091
:100310000060fe000040800001002200010060003b
:100320000000e00023003200004080000180200037
:10033000010060000000e0001d0032000b003700eb
:1003400022c8bf000040e80022e8b70022c8bf0072
:100350000084fb005c0107000081fb008800440072
:10036000e0802000008040000208780022c8bf0022
:100370000080fb0080004000e08020000080400002
:1003800090007800200a2000808f50000300320087
:1003900022c8bf00e84f5000e9ff360022c8bf0066
:1003a0000040e90023e8b7000188a8000168a9001f
:1003b00001a8a900004080000100240001006000a5
:1003c0000000e00041003200b10e800030408000ab
:1003d000808f50000a003100b10e80005040800034
:1003e00000804000b00e8800b10e800030408000d8
:1003f000808f50000200360030408000b00e880030
:10040000b10e800030408000808f50000a0036001e
:10041000b10e80005040800000805000b00e880077
:10042000b10e800030408000808f5000020031000b
:1004300030408000b00e8800d10e80004040800027
:10044000808f50000a003100d10e80006040800093
:1004500000804000d00e8800d10e80004040800017
:10046000808f50000200360040408000d00e88008f
:10047000d10e800040408000808f50000a0036007e
:10048000d10e80006040800000805000d00e8800b7
:10049000d10e800040408000808f5000020031006b
:1004a00040408000d00e8800004080000100210004
:1004b000010060000000e00003003200200107009e
:1004c0000188a9008d20a80001c8a9000040800073
:1004d00001002800010060000000e0008cff3200f5
:1004e000cfc2bf000042b2000004e00002003200b0
:1004f0000048a800010037000048a900cfc2bf0093
:100500000044b2000004e000020032000068a800cd
:10051000010037000068a900e0c2bf007040600021
:100520000004e000020032000088a800010037004b
:100530000088a900e0c2bf000042b2000004e00051
:100540000200320000a8a8000100370000a8a9009e
:10055000e6c2bf000044b2000004e0000200320026
:1005600000c8a8000100370000c8a90000408000b2
:1005700001042000010060000000e00051003a008a
:10058000401f200050408800001920006040880073
:1005900000408000640060000000e00004003200c1
:1005a000e002a800003b2b00304088000900370023
:1005b00000408000680060000000e00004003a0095
:1005c000200e800030408800200e8000b00e880091
:1005d000e002a90000408000680060000000e00028
:1005e00004003200e022a80000fa20003040880019
:1005f0000900370000408000640060000000e00057
:1006000004003a00200e800030408800200e800058
:10061000b00e8800e022a900004080007000600059
:100620000000e00004003200e642a80080fc2a003e
:10063000404088000a00370000408000010220008e
:10064000010060000000e00004003a00200e80007d
:1006500040408800200e8000d00e8800e642a900ad
:100660000040800001022000010060000000e00066
:1006700004003200e662a800803821004040880073
:100680000900370000408000700060000000e000ba
:1006900004003a00200e800040408800200e8000b8
:1006a000d00e8800e662a9000040800001202000f2
:1006b000010060000000e00016003a000128a800d8
:1006c000140037000040800001202000010060007d
:1006d0000000e0000f003200200e80003040880053
:1006e000200e800040408800e002a90000000000c9
:1006f00000000000e022a90000000000000000004f
:10070000e642a9000000000000000000e662a90027
:100710000128a90001e8a900fdfe37000000fa0049
:100720000005200010408800400020002040880084
:100730008002200050408800c003200060408800f4
:100740000000eb00401688000000eb0070168800e7
:100750000000eb00a01688000000eb00d016880017
:100760000000eb00001788000000eb003017880045
:100770000080eb003016880000002600601688001c
:10078000f0ff200090168800c00c2000c0168800e2
:1007900040072000f0168800003c20002017880049
:1007a0000080eb0040158800701a2600200e88009b
:1007b000200e8000b00e8800200e8000d00e880031
:1007c0000000eb00c00e88000000eb00e00e880087
:1007d000200e800030408800200e800040408800bd
:1007e00050052000400e88000080eb00600e88005d
:1007f00020022000700e880000302300a00e880028
:1008000000002800000e880040002000500e8800e4
:1008100088e0a90090e0a80000002800601088008f
:10082000005120007010880010082000a0108800df
:100830008540a9008d20a8008520a9000000eb00bc
:10084000801088000000eb00000688000000eb002c
:10085000100688000000eb00200688000000eb0076
:10086000300688008de0a900e002a800000000002a
:1008700000000000e022a8000000000000000000ce
:10088000e642a8000000000000000000e662a800a8
:10089000803e200014020700e002a90000000000d2
:1008a00000000000e022a90000000000000000009d
:1008b000e642a9000000000000000000e662a90076
:1008c0000080fa00000006000200fa0085c0bf00a8
:1008d000624060000004e000fcff320090108000e5
:1008e000004f78008520a9000d0007001e80fb0046
:1008f0000080fa00000006000200fa00000f7800f5
:100900000fc2bf00624060000004e000fcff3a003c
:100910001e007800801088000080fa0000000600a9
:100920000000fa000ec2bf00624060000004e00058
:10093000010032000e22a9000080fa00000006002b
:100940000800fa000000eb00100798000148a90019
:1009500080408000300798003e009000ea0f500071
:10096000040032003e009000fe0f500006003200ee
:100970000900370022c8bf00e44f500006003a00cb
:100980000148a8000400370022c8bf00e94f50000a
:1009900001003a000148a80000408000014020000a
:1009a000010060000000e000cc00320010c0b30085
:1009b00022e8b7000c00370022c8bf000080fb000f
:1009c00080004000e080200000804000900078001f
:1009d0001e009000010040001007980022c8bf00d0
:1009e0000040e80022e8b700218220009140780012
:1009f00023c8bf0080cf5000efff390023c8bf00dd
:100a00000080fb0080004000e0802000008040006b
:100a1000100178009e009000f00720000080600028
:100a2000800f5100ad003a00804080002007980000
:100a30002e009000ea0f5000040032002e009000bb
:100a4000fe0f50001b003200a4003700b200070068
:100a5000904080000000e00002003a0010002000fa
:100a6000904088009140800040062000808f500018
:100a700002003600400620009040880000408000c0
:100a800001042000010060000000e000930032003b
:100a900091408000001920000088b9005040880073
:100aa00091408000800c20000088b90060408800e0
:100ab0008a0037000040800001042000010060002f
:100ac0000000e0008500320091408000a0408000de
:100ad0004700dd0080807000b04080004e00dd00e7
:100ae0000080700030408800c1408000d04080000d
:100af0004700dd0080807000e04080004e00dd0097
:100b0000008070004040880031408000200e80004e
:100b1000808f5000020036000008a8000100370056
:100b20000008a90041408000200e8000808f500006
:100b3000020036000028a800010037000028a900a4
:100b400000408000610060000000e0001000320002
:100b5000e0c2bf000004a20061406000614060008c
:100b60006140600061416000012e200091407800ea
:100b7000e0cfb30000c0600002407000e0e2b700c8
:100b80000000000000000000e022a9001200370071
:100b9000e002a9000000000000000000e0c2bf0069
:100ba0000080fb000000d1000004a2006140600052
:100bb00061406000614060006140600000414000b1
:100bc000012e200091407800d0cfb30000c060001b
:100bd00002407000e0e2b700004080006200600068
:100be0000000e00013003200e6c2bf000080fb00fe
:100bf0004200de000004a20061406000614060002d
:100c000061406000614060004201dd00612e200013
:100c100091407800b0cfb30000c060000240700087
:100c2000e6e2b7000000000000000000e662a90054
:100c300012003700e642a90000000000000000009a
:100c4000e6c2bf000080fb004300de000004a200fb
:100c50006140600061406000614060006140600090
:100c60004301dd00612e20009140780070cfb30079
:100c700000c0600002407000e6e2b7003140800032
:100c800080f62b00808f50000200360080f62b008b
:100c90003040880031408000703e2000808f50003e
:100ca00002003e00803e200030408800414080002d
:100cb000003b2b00808f500002003600003b2b00d1
:100cc0004040880041408000f0f92000808f5000b3
:100cd00002003e0000fa2000404088000000eb00c7
:100ce000000f7800010037001e0fe8009000200080
:100cf0009e0f1000fcff36001e00780080004000b0
:100d0000e0802000808040000000eb008008780038
:100d10000080fa00000006005200fa0010002000d7
:100d2000200f98001d0037002e089000421680000a
:100d3000f600470000004000010040000208780073
:100d400000000000000000002e089000a2168000a5
:100d5000a10220008e804000000040000100400001
:100d60000208780000000000000000002e0890003b
:100d700032178000e10320008e8040000000400018
:100d800001004000020878000000000000000000a0
:100d90002e0890000000e800200f98002e08900018
:100da000ea0f5000e0ff360010002000200f9800ee
:100db000590037000000eb00600798006e009000bb
:100dc000700798007e019000020f98002e08900096
:100dd0000000e800100f98002e0037002e08900049
:100de000f600470000004000608178001e08900077
:100df000f60047000000400060807800800f51003e
:100e000003003a000e0890000000e800000f980070
:100e10002e089000a10220008e80400000004000bb
:100e2000608178001e089000a10220008e804000a2
:100e30000000400060807800800f510003003a00fd
:100e40007e0090000000e800700798002e089000d7
:100e5000e10320008e8040000000400060817800a7
:100e60001e089000e10320008e804000000040003a
:100e700060807800800f510003003a006e009000ff
:100e80000000e800600798001e0890000000e800dd
:100e9000100f98001e089000ea0f5000cfff360098
:100ea0000e089000e60f5000180036007e009000fb
:100eb000e60f5000150036006e009000e60f50005f
:100ec000120036002e089000f60047000000400097
:100ed00060817800520798002e089000a10220003f
:100ee0008e8040000000400060817800420798003a
:100ef0002e089000e10320008e804000000040009a
:100f00006081780032079800060037002e089000b4
:100f10000000e800200f98002e089000e40f500019
:100f2000a4ff36005e009000ef4060005e0090007d
:100f30004400de000047b20000c070004047980047
:100f40005e0090004b00de007f406000504798003c
:100f50004e0090000074a100204798004e009000c1
:100f60004700de00f94060003e0090004600de00d1
:100f70006640600000c07000304798004e4090000e
:100f80008080fb005e4090000080fb00808040007d
:100f90002e4090000080fb00808040003e4090008a
:100fa0000080fb0000804000000f7800a0082000b7
:100fb00051fe07004e4090000080fb004efe0700ef
:100fc0005e4090000080fb004bfe07002e4090002a
:100fd0000080fb0048fe07003e4090000080fb00c0
:100fe00045fe0700f00720001e00600042fe0700db
:100ff000c008200040fe07000080fa000000060044
:10100000801f78003400f80000c0b300a001880001
:101010000000fa00104080000000e9001040880045
:10102000104080000000e00003003a0001e8a80042
:101030000005200010408800204080000000e900ea
:1010400020408800204080000000e00003003a00bb
:1010500001c8a800400020002040880001a8a80086
:1010600088e0a9000080fa003400f9004f00780001
:10107000004006003600f800809fbe00829fbe0040
:10108000849fbe00869fbe003400f80000c0b300fd
:10109000a00188000000fa000040eb0022e8b70041
:1010a000901080007040880071408000100a20007d
:1010b000808f500002003a000168a8008d20a9002e
:1010c0008520a90016fe07000080fa003400f90010
:1010d0004f03be004f02be004f01be004f00be00d6
:1010e0003600f900004006000400fa0010079800de
:1010f0000000eb00000f7800010037001e0fe80031
:101100001e0090009e0f1000fcff39000080fa00c6
:0411100000000600d5
:020000040000fa
:0200000401f009
:04000000e6ff000017
:020000040000fa
:0200000401f009
:04000400ff7f00007a
:020000040000fa
:0200000401f009
:040008007fff000076
:020000040000fa
:100008009208000092080000920800009208000080
:100018009208000092080000920800009208000070
:100028009208000092080000920800009208000060
:100038009208000092080000920800009208000050
:10004800920800003a080000920800009208000098
:100058009208000092080000920800009208000030
:100068009208000092080000920800009208000020
:100078009208000092080000920800009208000010
:100088009208000092080000920800009208000000
:1000980092080000920800009208000092080000f0
:1000a80092080000920800009208000092080000e0
:1000b8009208000092080000920800000008000062
:1000c80092080000920800009208000092080000c0
:1000d80092080000920800009208000092080000b0
:1000e80092080000920800009208000092080000a0
:0800f8009208000092080000cc
:020000040000fa
:10010800920800009208000092080000920800007f
:10011800920800009208000092080000920800006f
:10012800920800009208000092080000920800005f
:10013800920800009208000092080000920800004f
:10014800920800003a080000920800009208000097
:10015800920800009208000092080000920800002f
:10016800920800009208000092080000920800001f
:10017800920800009208000092080000920800000f
:1001880092080000920800009208000092080000ff
:1001980092080000920800009208000092080000ef
:1001a80092080000920800009208000092080000df
:1001b8009208000092080000920800000008000061
:1001c80092080000920800009208000092080000bf
:1001d80092080000920800009208000092080000af
:1001e800920800009208000092080000920800009f
:0801f8009208000092080000cb
:020000040000fa
:10111400000800002400000000000000000000009f
:020000040000fa
:041124000000fe00c9
:00000001FF
